:100000006F20D03C00000000F2010000F40100006D
:1000100000000000000000000000000000000000E0
:1000200000000000000000000000000000000000D0
:100030001220000000000000CA2B00000000000099
:10004000CA2B0000CA2B0000CA2B0000CA2B0000DC
:10005000121A0000CA2B0000CA2B0000CA2B000095
:10006000CA2B0000CA2B0000CA2B0000CA2B0000BC
:10007000CA2B0000CA2B0000CA2B0000CA2B0000AC
:10008000CA2B0000CA2B0000CA2B0000CA2B00009C
:10009000CA2B0000CA2B0000EE190000000000006F
:1000A000511126C022C206C4828282441244A24058
:1000B000310182802A86014593F6150091C232955E
:1000C00085810606F5F9828000000000634E050276
:1000D00063C305042E86AA857D5515C285466378BF
:1000E000B6006356C00006068606E36CB6FE014500
:1000F00063E4C500918D558D85820582F5FA828075
:100100008682C93F2E8582823305A04063D70500D1
:10011000B305B040C1B7B305B0408682653F330533
:10012000A0408282868263C70500634905005D376F
:100130002E858282B305B040E35B05FE3305A04007
:10014000513F3305B040828200003D432A876373EC
:10015000C3029377F700BDEFADE5937606FF3D8AC6
:10016000BA960CC34CC30CC74CC74107E36BD7FE10
:1001700011E28280B306C3408A0697020000969679
:100180006780A6002307B700A306B7002306B700C1
:10019000A305B7002305B700A304B7002304B700E5
:1001A000A303B7002303B700A302B7002302B700DD
:1001B000A301B7002301B700A300B7002300B700D5
:1001C000828093F5F50F93968500D58D9396050162
:1001D000D58D61B793962700970200009696868288
:1001E000E78086FA9680C1171D8F3E96E374C3F8A8
:1001F000A5B701A0B707EFBE37E700E09387070870
:100200003CC701A0EFF2DFE9B717014071119387F6
:1002100007402A849D443EC0B3579440858B930584
:10022000000437150140B9C3EF20D0360245C1455F
:100230006204EF2030369305000837150140EF20A7
:10024000D0348547B3979700E207E187618415C1F1
:100250005D8C0245C145FD14EF201034FD57137429
:10026000F40FE39BF4FA2285110181B5EF20D0321F
:1002700075BF93C7F7FF7D8CE9BFEFF27FE237A42C
:100280000700130404121305F00FAD3F9307F00F9E
:100290006304F5007D1465F809BDEFF27FE0B14716
:1002A0002A84AE846303F500C93F13650404993FB3
:1002B00013D58401813F13D504011375F50F9937C8
:1002C00013D584001375F50F353F13F5F40F1D3F5B
:1002D0001305500901C8A1471305F00F6314F4007A
:1002E00013057008053729441305F00F7D14193FD5
:1002F00011C493178501E187E3C807FE7DB3631B33
:100300000512EFF2FFD95111854513050003EF20C7
:10031000B032371401400D47C147130504408A85A8
:100320003AC23EC47C8023110100EF20501E130509
:100330000440930400048A856480EF20501D8A8560
:10034000371501406480EF20901C930700087C80E3
:100350008A8593078004371501403EC4EF20301B87
:100360001305044093050004EF20D0221305044038
:10037000C145EF2070221305044093050004EF20CF
:10038000702129441305F00F7D14AD3D65FC371530
:1003900001409305000413050540EF20F01F93046E
:1003A000803E81450145D53D85472A846309F50C8A
:1003B000FD14E5F8371501401305054093050004C9
:1003C000EF20501D0545ADA01305F00F253DB307E7
:1003D000910088A385049147E398F4FE188185472E
:1003E0006317F70298819307A00A6312F702371484
:1003F0000300130404D4814513057003793DB70548
:10040000004013059002513D05C97D146DF413059C
:10041000F00FCD3B3715014013050540930500044F
:10042000EF205017B707002003C5870213351500CA
:100430003101A5B90545828081451305A003B13D71
:1004400001441305F00F7D3BB307810088A3050429
:100450009147E318F4FE1C803707002093F7070448
:10046000B337F00089072304F70255B718208D47EA
:10047000E30FF7F8930500204145053549BF930583
:10048000A01A2145193D8144E30085F481451305F7
:100490007003213581451305900201356373A40073
:1004A0001144B7070020E164238487029384046A1F
:1004B0001384870218208547814505456318F70096
:1004C00013057003D93B814513059002F93359DDBB
:1004D000FD14EDF02DBF01E9B707002003C5870229
:1004E00013351500828005458280631A050CB70715
:1004F000002083C787020D456385070CEFF25FBAC2
:100500000D477111AE8436846383E70026063715E4
:100510000140130505409305000432C0EF20D007C9
:100520008547454502466303F4004945B285B53326
:1005300001CD371501401305054093050004EF2058
:1005400070050545110195B6E1679387076A1305A4
:10055000F00F3EC045391307F00F6316E5008247E0
:10056000FD17F5F7F9B79307E00FE314F5FC8147A2
:100570001305F00F3EC0793182473387F40008A39A
:10058000850713070020E395E7FE1305F00F9D395B
:100590001305F00F7D1493840420AD3155F481458B
:1005A0003145E5391305F00FB13937150140130511
:1005B000054093050004EF20E07D014561B70D453E
:1005C0008280828063100510B707002083C78702EE
:1005D0000D45638B070EEFF2BFAC0D477111AE8472
:1005E00036846383E700260637150140930500042F
:1005F0001305054032C0EF20207A02468547B285B8
:100600006316F4066145513901CD371501401305D4
:10061000054093050004EF20E0770545110171B412
:10062000A9391305E00FF93E0144B38784008823FC
:100630000504C93E93070020E319F4FE1305F00FEB
:10064000D1361305F00F7D3E1305F00F653E7D8911
:100650009547E31CF5FA15313715014013050540A0
:1006600093050004EF20007301454DBF654535310A
:1006700049FD21311305C00F713681473387F400DE
:1006800008233EC041368247130700208507E397C1
:10069000E7FE1305F00FBD361305F00FA536130561
:1006A000F00F8D367D89954793840420E31FF5F480
:1006B0007D1461F0D9361305D00FA9361305F00F5C
:1006C000913651BF0D458280828031E58947638B29
:1006D000F5028D47638DF5021145A1E1EFF25F9CB4
:1006E000371401409305000413050440EF20C06A4D
:1006F00069361305044093050004EF20A069014505
:100700006FF0BF9A930700201EA2014582809307D5
:1007100000201CC2DDBF1145828082803C3138211F
:10072000A207D98F1831A2070821D98FA2075D8DA2
:1007300082805C49F915F91763FCF500EFF25F96CA
:100740002A842A25EFF01F975C543E956FF0FF95A1
:10075000014582801C4185C73E8793050002130630
:10076000A00305078306F7FF13F3F60F63F1650295
:10077000E399C6FE8386070089076304F700FD57E7
:1007800001A813060003FD576394C60018C18147F2
:100790003E85828019E9814725459CC18280254597
:1007A00081479CC111016FF05F90EFF27F8F1C4178
:1007B00071112A84EDD798237DD35621FA23E39033
:1007C000E6FE88332EC0013B0589824569F91C404D
:1007D000C9BFBC3DB82DA207D98F0D476318E500EE
:1007E000D839D4292207558F4207D98F3E85828078
:1007F00093170601C183A183BCBDB0AD18218D47FD
:100800006316F7004182D0A92182D0B98280EFF22D
:100810003F89404D7111014781471305000215437F
:10082000A1429303E0022D46B306E400838606004E
:100830006381A60263936600955663175700B380E1
:10084000F500A38470008507B380F500A384D00071
:1008500085070507E31AC7FCAE97A38407003C345D
:100860001305C4012EC093F7F7039CA5453D8245AF
:1008700088C17C387828A207D98FFEA11C3C182C8F
:10088000A207D98FDEA111016FF03F825C2181E7C1
:1008900081473E858280EFF2BF8093040503504D6F
:1008A0002A8408318546A685313B854705E5504CAD
:1008B0005C50184C23020400B307F64063FBE700CA
:1008C000343089476397F600083085463A96A68506
:1008D000D53981473E856FF04FFDEFF26FFC584DE3
:1008E00071112EC001446302B702AA8445372A84DD
:1008F000824701ED88303E86854693850403F536B0
:10090000824719C10544FD57DCCC228511016FF0E7
:10091000CFF9EFF2EFF8FD575CCD230205002A84F2
:100920006D3F914769E98344F4228347E42213072A
:10093000B00EA204DD8C834704036388E700E1075F
:1009400093F7F70F05476361F70AAD67938757A5DC
:10095000639DF400B735000021469385C56F1305EC
:100960002408EF20903F814759C58347C4030347BC
:10097000B403A207D98FC207C1871307002063956C
:10098000E7060347D4032DC39307F7FFF98FA9EFB9
:100990008347F4030347E403A207D98FB1C7834712
:1009A00004040547FD176361F704834724040347E4
:1009B0001404A207D98F8DCB834744040347340422
:1009C000A207D98F1307F0076368F7001305040522
:1009D000B133C167636AF500034774048347640455
:1009E00022075D8F814701EB2D67130757A58947C4
:1009F0006383E4008D473E856FF02FEBEFF24FEA03
:100A000085445111894663F2B40A5C49894663FE04
:100A1000F50832841021AE876303D60A8D4663073A
:100A2000D60C894663139608545193D41500AE949E
:100A30002EC293D59400B6952AC04535AA8635E5D1
:100A400002479247138314001306070393F4F41F1D
:100A5000B305960093F417009377F40F81CC9C2193
:100A60000565411593F6F70093174400E98FD58F7C
:100A700093F7F70F9CA185475CA35C5393559300B4
:100A80003A85BE9532C41AC23AC0813DAA8611ED9C
:100A90001243224602471373F31F1A9699C8118016
:100AA0001374F40F00A285475CA3368531016FF003
:100AB000CFDF1C2221803D88C19B5D8CE5B754515E
:100AC000A1813EC2B6952AC0093DAA8679FD92470A
:100AD000024786071306070393F7E71FB29780A321
:100AE00042044180218080B344A3C1B754519D8109
:100AF0003EC2B6952AC0D533AA860247924755F51D
:100B00008A071306070393F7C71FB2972AC43E85C7
:100B10003AC23EC02131370600F012048247718D7F
:100B20001180498C13568400124780A390B313564A
:100B300004016180B0A3A0B344A3A246BDB785471A
:100B400063F3B70CEFF2CFD558496111AA8463F86B
:100B5000E502182189462E846307D7068D46630473
:100B6000D708631EF70093D715005851AE9793D559
:100B70009700BA953EC09533824711C5FD573E8513
:100B800021016FF08FD21387170093F7F71FA697F5
:100B900083C60703DC50935597002685BE9536C261
:100BA0003AC0253B61FD0247924605881377F71F3F
:100BB000BA9483C70403A207D58F19C09183C1B724
:100BC000D207D1836DBF5C51A181BE9539335DF5EC
:100BD0000604938404031374E41FA2949C309820A9
:100BE000A207D98F69BF5C519D81BE95FD3159F532
:100BF00013152400938404031375C51F2695393EED
:100C00009317450065BF85473E858280EFF24FC947
:100C100051112AC22EC0004181E9544481C65C486A
:100C200063E6F60285461DA02285113F8546AA840B
:100C300063E7A6008544268531016FF00FC7FD5696
:100C4000630ED50A5448E368D5FE82461C4899E3F2
:100C50008144D5B78247639CF602504893841600BE
:100C600063E3C40089449247A68536C48843C13DE6
:100C70000546E301C5FCFD556302B508A24629C13E
:100C80005C446376F600504863F3C700BE86B684C2
:100C90005048850463E6C4008547E3FBD7FA8944DE
:100CA0009247A68536C48843593D01CD0546E303E6
:100CB000C5F87D566304C504A246E39BD4FC49BF36
:100CC000F9D47D56A6852285153B15E5824799EF17
:100CD000144844C4ADD250487916E36ED6F4FD16DC
:100CE00014C8543093E6160054B0B1B78245268636
:100CF0002285293371DD8547E31EF5F2FD5425BFBA
:100D0000EFF20FBA61112AC00547AE84004163714A
:100D1000B706584863FEE504B28509C67D562285AC
:100D2000F13919E58247A6858843113D09E501455A
:100D300021016FF08FB78546630CD502FD562AC29C
:100D4000630AD5020146A68522854D3975F15448BE
:100D50001C4812471386E6FF63F8C70085071CC8C6
:100D60005C3093E717005CB0BA84E36DD7FAC1B783
:100D700009457DBF05456DBFEFF28FB261112A8431
:100D80002EC0293639E582452285EFF09F9A9307D8
:100D9000040348CCAA84130600203E8581453EC04A
:100DA000EFF0AFBA81473A2463E9E7002A241D8DAA
:100DB0003335A00021016FF04FAF824508303386F4
:100DC000F40085463EC2EFF0EFFF924765F18507DC
:100DD000D9BF0545C5B7EFF2AFAC1C495111004171
:100DE000938707023EC00247B70720006364F700FD
:100DF000232C0500144D11468DC682472E86AA84E9
:100E000093F7F71F3EC2D9E34C49850614CD91ED07
:100E10008247122493D6570063EAC60623AC040027
:100E20001146328531016FF04FA836248247FD16F6
:100E300013D59700E98EB9EA228532C409330543F8
:100E4000AA8622466364A3000946E1BFFD556314E8
:100E5000B5000546F9B74C486364B50261D2CC4889
:100E600026856D331D4655DD0543E30F65FC7D5634
:100E7000E301C5FEAA852AC42285FD3DA24671F97B
:100E8000D4C8B6852285EFF0DF8A88CC8247130765
:100E9000040301469CC89247BA97DCCC59B7EFF2DD
:100EA0002FA01301C1FC23A0050032842EC0EFF057
:100EB0007F8A2D47634C05029317250037050020D4
:100EC0001305C5023E95044131478DC08245137418
:100ED000E40F84C1982005C38830EFF0CFDF13778B
:100EE000150011EB01C4118911C129473A8513017D
:100EF00041036FF08F9B883023800400EFF02FC0F8
:100F0000937615000D47FDF219C0118979FD8145D1
:100F10002685EFF01FA00947631CE5044010938766
:100F2000641F9386642322873E853AC436C23EC03E
:100F3000EFF0CFFE22478247924608C3C107110750
:100F4000E394F6FE930704010C400D4589C92685FC
:100F50003EC0EFF01F9C054782476371A702110452
:100F6000E39487FE91470547E302F5F83547BDBF97
:100F700091460547E30CD5F6E36AA7FE03C7C40311
:100F800083C6B4032207558F42074187930600208A
:100F9000E31ED7FC83C7740403C76404A207D98F78
:100FA0006381071C3EC0DC4C03C7040405463EC2F7
:100FB00082479306F7FFB8B09CCC93F6F60FE36731
:100FC000D6FA83C2D40393960201C182B6A4D9DEB5
:100FD0009386F2FFB3F65600D1FA83C6240403C603
:100FE0001404A206D18E93970601C1873EC63C86A3
:100FF0003EC49EA493F6F700B5FA03C4440483C626
:1010000034042204558C11E81385040516CA3AC825
:10101000EFF0CFF0D24242472A8483C6F40303C6DE
:10102000E40316D0A206D18E36C8A9D282453A85ED
:10103000EFF04F88A247C2462ACC13D64700369617
:1010400036CE2A96E364C4F28252118C22859685AC
:1010500016C832CAEFF00F88C242E36954F037076E
:1010600000105517E364A7F04167551752466243D5
:10107000F246637DA7100D44924713072500D8C898
:101080003E96BE96D0D49CD0D4D00D466311C40EEB
:1010900083C6B40503C6A405B247A206D18EDD8E71
:1010A000C2063AC4C186E39306EC1385C405EFF08B
:1010B000EFE6224788D41315270082471305F51F52
:1010C0002581E3E5A7EA7D5798C8D8C4130700F83F
:1010D000D8B00D47631CE40603C7140683C6040694
:1010E0002207558F4207418785466311D7069247ED
:1010F000268593851700EFF04FFE29E9A3820400AF
:1011000013850403EFF08FE137576141130727255B
:10111000631EE50213854421EFF04FE0377741610C
:10112000130727276314E5021385C422EFF00FDFAE
:10113000370755AA631CE50013858421EFF00FDE05
:1011400088C81385C421EFF06FDDC8C49386818001
:101150009A2280A00507420741839AA2FAA001477C
:1011600071B313854405EFF06FDB2AC02DBDA24794
:10117000E38E07DE9A9694D4894613151700E30E82
:10118000D4F23A950581058B3A9505BF056455144F
:101190003334A4000504CDB5EFE29FF01C452328AD
:1011A00005007111AA84004185EB1420094763747E
:1011B000D70018540DE31A2409E7094511016FE01F
:1011C000DFEE185498CCDCC89C4CE5DB1304040318
:1011D000C0CC0145E5B7BA873A2405E38840BE850F
:1011E000EFF0FF957D57AA876301E5020547E37697
:1011F000A7FC5848E364E5FEC9B7BE8522853EC01A
:10120000EFF02FD388CC82477DBF054545BFEFE285
:101210003FE91C417111AA843EC0BD3F2A8421EDE3
:101220008C4C0245EFF06FEB2A8431E5D84C9306E5
:10123000500E1823631BD7028C4C0245EFF0EFE9E8
:101240002A8405E1C84C130600028145EFE0FFEF58
:10125000C84C2D4693850402EF2060320247854733
:101260005CA3228511016FE05FE479D7854526856F
:101270009D362A8455D59147E315F4FE1D44D5B714
:10128000EFE21FE21C4121112A842EC03EC4130646
:10129000F0029306C0058247038707006305C70273
:1012A0006303D7022324040094237D47636CD70A89
:1012B000130700F8A305E4022285F93D2A873A8541
:1012C00061016FE09FDE824785073EC0E9B7850771
:1012D000D5A063896416637ED70463D6050093F4B2
:1012E000F407B29484203EC8B7370000A685138562
:1012F00087703ACA36C2EF20A03505ED9385F4F920
:101300000D6693F5F50F65459246C2475247930324
:10131000F0029302C0051303E0021306C66763657B
:10132000B500811493F4F40FB245BA9584A1050772
:10133000B9A8194769B79147E313F7F892471147DE
:10134000BDFF1547ADBF9247BDFBC18AFDDAA2477D
:1013500018488823938507031377F71FBA95EFF092
:101360004FC708C4930704022D463E85930500022B
:101370003EC6EFE09FDD0D6601478147A14693031E
:10138000F0029302C0051303E0021306C66782450C
:10139000850713050002BE958385F5FF93F4F50FCD
:1013A0006372950263847400E39554F29305F0022E
:1013B0001306C0058246BE9683860600E389B6F012
:1013C000E387C6F08246B6973EC025D7834604021F
:1013D0001307500E6395E60015472300E40291477A
:1013E000130700023EC26378970082478386070096
:1013F0006353D70002C2924722850440A305F4023A
:10140000613B2A870DF90C4C2685EFF00FCD2A871A
:101410001DF12ACA484C142195D2343513F6F6032F
:1014200070A0303536C8218A09EAB2452D46EF2032
:10143000C012C2465247E30805F081452285EFF00D
:101440009F99C1B72D47E386E6EE2147AD4681B7A8
:10145000EFE21FC52A84EFF06FC379E1583085476A
:101460006319F70A1820A30204008D4704306312A1
:10147000F70A130704031306002081453A85EFE0BD
:10148000DFCC930720052308F402A308F402930796
:1014900010062309F402A30BF4201C489306100441
:1014A000A309D402230BD42093D68700230CF42065
:1014B000A30CD42093D60701E183A30DF4205C4450
:1014C00013062007230AC420A30AC420230DD42016
:1014D000105093D68700230EF420A30ED42093D669
:1014E0000701E183A30FF420930750052307F4229B
:1014F00005069307A0FA230FD420AA852306042209
:10150000A3060422A307F42250CC85462685EFF0DB
:101510006F8B083001468145EFF02F9B3335A000DB
:101520006FE0BFB8EFE2DFB741112AC468002EC2F6
:1015300032C02EC6EFF00FA263430504B7070020A8
:101540001387C7029316250036970C439387C7026B
:10155000024689C52320070023800500224711C7C2
:1015600008B323000700B69798C3014511C601468A
:101570002C004800EFF0BF9241016FE01FB32D45F2
:10158000E5BFEFE2FFB139712EC6A547630405142C
:101590009374F60332C02A8426860C086800EFF0A4
:1015A0001F90AA8761E5C247B24548081CC03ECAE1
:1015B000C139AA87024711E58306F10363D3060008
:1015C00099479376C701638B0610C5C71147639F80
:1015D000E70848082D39AA8751E993E48400C257E7
:1015E000930610021307A00594AB23870700A38777
:1015F000070098BBC25794AF238B0700A38B07004B
:1016000098BFC24742578823BA853AC43EC2EFF01A
:101610004F9C224793060002924734B7C2552AC016
:1016200001463E85EFF0CF9CC2570547238E070049
:10163000A38E0700238F0700A38F0700C247D8A3FC
:10164000024729C3D84F8245014648083AC2EFF005
:101650002FEBAA87124719E94245BA85EFF0EFA7A9
:101660000247C246AA877D17D8C609CD23200400A9
:1016700095A093774700E1EB8347A101C58BADEBC4
:10168000218B31FF93F7840099C393E40404C2478C
:10169000D84F3EC218D0425758D08823BA853AC492
:1016A000EFF02F93224708C42AC01305C701EFF0BB
:1016B000EF86924748C42A87F62304A8A3080400AB
:1016C00056A0232E0400232A040093F4040282452A
:1016D00095E081473E8521616FE03F9DC1FB8347D7
:1016E000A10193F60701B5E2098B49DF858BD9DBB0
:1016F0009D47ADBF79DDA62748C8A60463E4E40290
:1017000081470CCCA5F73EC29376F71F3AC0F1D2C1
:101710004245EFF00F8205CD0247924725832A9775
:1017200058CC4DBF08403AC0EFF06FC10247854723
:10173000AA85058F63F7A700FD57E311F5FC8547E0
:10174000C9B789477DBFA14715B7914705B78947F5
:1017500031BFEFE2FF9421112EC223A006004C08F6
:10176000AA84328436C6EFF0EF822AC03DE19C386D
:101770003EC0A5E39828098B63020718D848B30632
:10178000870063F4E6001344F7FF21C0D84893763E
:10179000F71F63930612D24613569700B626FD161E
:1017A000B3F7C6003EC4A9E701EF8844814511C9DB
:1017B00005476314E502094798B889473EC011A858
:1017C0008C4C2685EFF08FC465F5982813670704C5
:1017D00098A8024561016FE05F8D7D576316E500B3
:1017E000054798B88547D9BF984488CC11E388C489
:1017F0005245D84C544D6395E600EFF02F896DF1BA
:10180000D2428C4C168516C8EFE0BFF24DD5A247E8
:101810001307F01FC2423383A7006370870883D683
:10182000A200135794003386E70063F4C6003387A1
:10183000F640924503C51200BA861A863AC81AC401
:10184000EFE05FD851FDD24622434247CC4E33836E
:1018500065406371E302924726031385060313066E
:101860000020B385670036C4EF107051A24642478E
:101870002382060093169700B247158C984336973B
:1018800098C3D8489247B697BA96D8443EC2D4C8AF
:101890006373D7003687D8C4CDBDD448D84463EB32
:1018A000E60016851AC4EFE07FFE1DF95247224379
:1018B000232E670023AE6400D8489376F71F1307E2
:1018C0000020158FA28663738700BA86CC4C5245E0
:1018D00036C4EFF08F80E31505F05245D848A24694
:1018E00092451377F71F1305050336863A95EF10D7
:1018F000104952470546A24650A3BDBF9D477DBD36
:10190000EFE20FFA71118A85AA84EFE0BFE82DE5B6
:101910009C2893F70704ADC38C500245EFE0FFFB12
:1019200021EDC0503C34A28593E707023CB49044BB
:101930008840EFE0FFEBDC440245230B040013D7A3
:1019400087005CAC58BC13D70701E1837CBC9307CC
:1019500010021CAC9307A0051CBC78AC8547A30BF8
:10196000040023090400A30904005CA1EFF05FAEAA
:101970009C2893F7F7FB9CA811016FE00FF3EFE2AF
:101980002FF271112A84AD3F01E98A852285EFE0AB
:101990007FE019E12320040011016FE00FF1EFE275
:1019A0002FF079712AC0AE8401464C000A85EFF011
:1019B0000FCF2A840DE982454800EFF07F8C2A84FE
:1019C0001DE18307F10263CF070089C8F247A384B2
:1019D000040089C7A6854800EFE07FE322854561C2
:1019E0006FE0AFEC1944FDD8A3840400C5BF854562
:1019F00037050040EF10C04F19C9938741819843C4
:101A0000854537050040050798C3EF10E04F730088
:101A100020306111094522C226C0EF10C02C21C917
:101A200037050040EF10804CAA84371501408945E6
:101A30001305058003A44181EF1020351383A18095
:101A40008347030093F7F70F85E39386A18B9C22CE
:101A500093F7F70F95E309E985479CA2239C018A38
:101A60002398918023A681800945EF10A029124474
:101A700082442101730020309383C18083A7030037
:101A80009380018183D2000013170401C207458FA0
:101A9000B3E757008962B307F74093820271138757
:101AA000818B938501811386C18063F5F2021E2329
:101AB0002D466376F60085472300F30075B72310A3
:101AC000070011E52390900023A0830071BF2380BD
:101AD000060059BF16231305F0046361D5021623CF
:101AE000C207C183C206C182138516004205418127
:101AF0000AA3860613878181BA969EA286A100C298
:101B0000A5B7EFE2EFD9797185451545EF10C032E1
:101B100085450545EF102034894737150140FC8283
:101B20004C0893078004130505803ECE231B01005B
:101B3000231C0100231D0100EF10601D9307F0021C
:101B40007C842C00FD57370500407C86231501005E
:101B50002317010023180100EF10C0310546854509
:101B600037050040EF106037854537050040EF101E
:101B700040359307602205440A857C8022C22311E8
:101B80000100EF10202485450145EF1020218947F1
:101B90003ED00810C1473ED422D602D2EF10000E2C
:101BA00045616FE08FD0EFE2AFCF61119307403115
:101BB0007C800A8585473EC223110100EF108020FA
:101BC00021016FE08FCEB7E700E03707100023A0B8
:101BD000E7180F1000008280EFE28FCCED37239CD6
:101BE000018A23850180238D018A753F6FE0EFCB49
:101BF000AA8703C5A1801375F50F63050514EFE2ED
:101C00002FCA9386818B96229305F0047111138756
:101C1000818B1306000563E5D5001223420641823D
:101C20002395C70A9385A7008146138381819392E8
:101C3000060193D2020163E5C2020E2323A007002E
:101C40002386070AC20523A2070023840700C18157
:101C500009476361B7024937014511016FE0EFC4DD
:101C6000939216009A9283D2020085068905239FDB
:101C700055FE75BF9382818183D602007973130369
:101C8000F35B9A96C2060563C1821303E3171387B9
:101C90008181E362D3FC83D622000D43C206C18258
:101CA000639765021383F69642031353030193026D
:101CB000E04563EE620005472386E70A054798C3BF
:101CC0001307000298A7AD47E3E9C7F869B77D732A
:101CD0001303F32D9A96C2060563C1829302E38B28
:101CE000E3EBD2F693061004E3F7B6F681428145A2
:101CF000930360111304C04E13033383854493860A
:101D0000150036C056239386B6E5C206C182E3E4C9
:101D1000D3F476236361D4029386B6E5C206C1820A
:101D2000E3EBD3F28245930600021107E399D5FC59
:101D300023A2570061B7E360D3F2B395B400B3E2D6
:101D4000B200CDB78280EFE2AFB5373400008945ED
:101D50001305447AEF005050AA84EF00607A0945D9
:101D6000EF00103B13050008B307954013D5F701AA
:101D70003E950585A1451375F50FEF00D038130585
:101D8000447AEF009039EF0000796FE00FB2EFE294
:101D90002FB10E212A8437150140EF00107F342027
:101DA000AA871387C18B6384A600144354C0544090
:101DB00018433CA00145158F9306200363F8E60005
:101DC00038306305F7003CB013B517006FE0EFAD96
:101DD000EFE20FAD71113734000085452AC01305BD
:101DE0008479EF007047AA84EF0080710545EF0009
:101DF000303213050008B307954013D5F7013E951F
:101E0000058591451375F50FEF00F02F13058479C3
:101E1000EF00B0309304400301448247139504015E
:101E2000418585460D46E1456374F402EF00902339
:101E300005049387C400939407011374F40F0D47AE
:101E4000C180E31CE4FCEF00006D11016FE0EFA521
:101E5000EF00700BF1BFEFE2AFA43307B600111132
:101E60001377F70F3AC62AC8131705011315160082
:101E70003295939705014187C1832ECC0605A9456C
:101E8000B2843AC03EC2EFE06FA492479305400689
:101E90003E95931705011395340026950A05C183D5
:101EA000058D3EC4EFE08FA2C2478313C1008315A6
:101EB00081003E951374F50F02459E8622860547E4
:101EC0001ECAEF00C075C247D2436243A6979E85E3
:101ED0009A863E86228505473EC8EF004074B24789
:101EE0000245228613831700A2479A8605479385E9
:101EF0001700C205C1851AC4EF00607292472243E1
:101F0000054793861700C2479A8522853E86EF00D3
:101F1000007171016FE06F99EFE28F981313050163
:101F200013530301B307C3009392070193130501F1
:101F3000939405013304B600C18493D3034193D233
:101F400002414111A2861686A6851E8505471AC63E
:101F50003EC416C21EC0EF00806C82439242A2862D
:101F60001E861685A6850547EF00606B3243A247A3
:101F7000A286050385073E86A6851A8505473EC2CB
:101F80001AC0EF00C069024392470547A2861A862D
:101F9000A6853E85EF00A06841016FE00F91EFE25A
:101FA0002F906111AA8739EDB7340000938404792A
:101FB000894526853EC213040007EF00F029B306C9
:101FC000A44013D4F60136942AC01D2B094505847C
:101FD000EF0010141374F40FA1452285EF00B01226
:101FE0002685EF00901302479247294613056700A4
:101FF00022951375F50FA94599CBB13D292B2101E8
:102000006FE0AF8AB73400009384847855B72937DE
:10201000F5B79387C18B9843050798C3B7F700E0DE
:1020200023A2070073002030EFE28F8737F400E02F
:102030001301C1EC0545EF009058EF00503223200A
:10204000040023240400B707002003A547029305DA
:10205000803EEFE02F887D1508C8BD471CC005678E
:10206000B7E700E023A0E7109307800873A00730CC
:10207000B7A7070002CC9387F711624763FAE70816
:1020800085454145EF00505BE1470C103715014095
:102090002310F102930780043ED42311010223127E
:1020A000010223130102EF009046E121B735000041
:1020B0000546938545701385018CEFF0AFC629ED79
:1020C00005472388E1AEEFF0DFA3EFF0DFC78547D8
:1020D00002C402C202C602C83EC001448144B7071E
:1020E000002013850700EFF09FCA2ACA3705002099
:1020F00013058500EFF0BFC91147E36297FE0D6637
:10210000139724001306867132971843D24602872C
:10211000624705073ACC95B7373400008945130567
:102120004473EF007013AA84E12E0945EF00407E4E
:1021300013050008B307954013D5F7013E950585B3
:10214000A1451375F50FEF00007C13054473EF00F4
:10215000C07CD1261387C18B10439387C18B930614
:10216000B05D9843118FE3FEE6FEB1BFADDA83A701
:10217000C18B268485443EC8EFF01FA60145EFF0D1
:102180003FC585473EC0A1BF91E211C5EFF0BFA397
:10219000EFF07FBBA1B79386C18B9442C247130671
:1021A000101C1387C18B9D8E6374D60282478946AB
:1021B0003E941374F40F63E4860E11E4FD566394A9
:1021C000D70085473EC01C4322853EC8EFF05FC064
:1021D0004801EFF0FFA1E30405F003470113631585
:1021E000070EAA470357E1123EC28347C1083AC40B
:1021F0009D0783C401AF8D8711476396E70A924616
:102200003736000013060674D145E808EF10403257
:10221000A2463736000013068675C145C800EF1088
:102220002031F92C0945EF00A06E8945E808EF0040
:10223000B002930700083385A7401357F5013A957C
:10224000058581451375F50FEF00E06BE808EF0099
:10225000C06C0545EF00C06B8545C800EF00C07F2E
:10226000930700083385A7409357F5013E950585F0
:10227000C9451375F50FEF000069C800EF00E0696C
:102280001D46E145194595CCEFF0FFBC1D46E145E3
:1022900013053007EFF05FC88944B52C89B5FD57A9
:1022A0003EC00D440DB7094792466397E7003736A5
:1022B00000001306867489BF3736000013060675C2
:1022C000A1B7EFF07FC5D9B7EFF01F9109BD6385C6
:1022D000061083C701AF638307108544B73700003A
:1022E00013864776A686E145C800EF106024EC0807
:1022F000C800EFF0CFEAB737000045C11386477634
:10230000E145A6866810EF10A02229466C10E80867
:10231000EFF02FA73DE992463736000013064677C7
:10232000E145C800EF10C020C800EF10E0332A8656
:102330007408CC00E808EFF0CFC1A24637360000A1
:102340001306C677E145C800EF10801EC800EF10E5
:10235000A0312A867408CC00E808EFF08FBF5C013A
:102360008144224693960401C1823737000063E816
:10237000C602B735000074080D4693854578E80815
:10238000EFF02FBDE808EFF08FDF83A7C18B054585
:102390008D443EC6EFF0BFC099B3850491B7A24605
:1023A0001306C772FD1663C6D40037360000130645
:1023B0000673B627E145C8003EC6EF106017C80097
:1023C000EF10802A2A867408CC00E808EFF06FB876
:1023D000B2478504890771B7E30305D083A7C18B92
:1023E000014591443EC6EFF09FBBD5B903A7C18B11
:1023F000B2479306B05D1D8FE3F3E6CE51BB71117A
:1024000002C0254782476354F7001101828082474A
:1024100085073EC0C5BFEFD2BFC88945371501400B
:10242000EF005017914537150140EF00B016C13F3E
:10243000894537150140EF003016D13791453715E2
:102440000140EF0070156FD05FC6EFD27FC5AA8440
:102450001D44B3D78440858B894537150140A9C7F2
:10246000EF005013914537150140EF00B012413F86
:10247000914537150140EF00301251377D14FD575B
:10248000E319F4FC894537150140EF00B010914580
:1024900037150140EF0010109D3791453715014069
:1024A000EF00900F6FD07FC0EF00100F65BFEFD22D
:1024B0003FBF894537150140EF00100E9145371594
:1024C0000140EF00300DEFF09FF3894537150140D3
:1024D000EF00500CEFF0BFF26FD03FBDEFD25FBC0A
:1024E0002A84EFF05FF313058007EFF01FF6014534
:1024F000EFF0BFF52285EFF05FF5553F6FD0FFBAE3
:10250000EFD21FBA130600208145138541AFEFD0EB
:10251000DFC36FD09FB9EFD2BFB8130510027D3F64
:1025200001456D3F1305F007553F130520027D3728
:102530000145EFF0BFFA0D45EFF05FFAEFF0BFEDA8
:1025400013058007EFF07FF013050004EFF0FFEFB5
:102550000144938441AFB387840088230504EFF0DE
:10256000DFEE93070020E318F4FEEFF05FF46FD086
:10257000DFB3EFD2FFB2511185454145EF00D00BDB
:1025800099477C80D1473EC48A858D4737150140E5
:102590003EC223110100EF008077894537150140C5
:1025A000EF00407F9145371501409164EF00807E38
:1025B00001449384C498B387840088230504EFF012
:1025C000FFF1E947E319F4FEEFF09FF3EFF0BFF4FA
:1025D00031016FD09FAD1317050141839307F007B9
:1025E00063EAE70293970501C1837D476364F702BD
:1025F0008D859E05AA9593F677008547138541AF93
:10260000B397D700AA95E20703870500E18701C6C3
:10261000D98F9CA1828093C7F7FFF98FDDBFEFD2DE
:102620003FA81301C1FD2A8336C013150601B283EA
:10263000931603013080AE824181C182C205B30787
:10264000D540C181C207B304B640C2043AC2C187B3
:10265000C18463D0070A054763D304007D57B3875D
:10266000A640C207C187FD5663D60400B384C540A7
:10267000C204C18463D6F40613D4F7013E940584E2
:102680003306F04032C4124696851A851ED03ACEE3
:1026900036CC3ECA16C81AC6EFF0FFF33243825357
:1026A000C242D247E246724763157300024663880E
:1026B000C204A245228663DA85003306944036932D
:1026C00042064203418613530341635994003E96E8
:1026D000BA924206C202418693D20241328465B761
:1026E00013D4F401269405843304804042044184C9
:1026F00041BF85460547E3DF04F67D5785BF1301DB
:1027000041026FD09F9AEFD2BF99131705011301B1
:1027100081FDB68413130601854641832EC61353EB
:102720000341918E81473AC2139407013ED09247EC
:1027300041803886B383870093170301C1833EC06D
:102740003AC4BA870247C20393D30341B382E70076
:10275000C20293D202411E859685268636D21ACEB3
:102760001ECC16C8EFF03FE79247C2422686338759
:1027700087404207418796853A853ACAEFF0BFE520
:10278000A2470247E2432686B382E740C20293D2C1
:1027900002411E85968516C8EFF0FFE3C2425247FC
:1027A000268696853A85EFF01FE3924702472686F4
:1027B000B383E700A247C20393D303413387870063
:1027C000420741871E85BA851ECA3AC8EFF0BFE0AE
:1027D000924702472686B382E7404247C20293D21D
:1027E00002411685BA8516C8EFF0FFDEA247D24334
:1027F00026863387874042074187BA851E853AC4BB
:10280000EFF07FDD2247C2422686BA851685EFF0BB
:102810009FDC92567243825713970601418363D31C
:1028200006029306370013171400BA96C206C18633
:10283000050493170401C187E358F3EE13018102E5
:102840006FD0BF86B38767409396170082471507FE
:1028500036971383F7FF931607014203C18613537C
:102860000341F9B7EFD2DF8321112EC4931506017E
:10287000C1812AC02E853304B040B28436C6EFD061
:102880007F8393170501C1833EC28247420441847E
:10289000C207C1833EC042044180A2852285EFD099
:1028A0007F8192473385A7401317050141878147F0
:1028B00093851700C207C1832E853ACA3EC8EFD060
:1028C0006FFF5247C247635CA7022247B306E4008A
:1028D0000247C20605043306F7003305F7403247C6
:1028E000C1864206420542044186B685418541843F
:1028F000EFF0FFD2E3D184FA61016FD00FFB8507BF
:10290000C207C18775B7A388A1AE2389B1AE828003
:10291000B70700202388A7008280EFD26FF8130149
:10292000C1FB2AC4A2478387070089E7130141043A
:102930006FD0AFF703C711AF811793F6F70F3AC601
:1029400037070020834407011307E005637FD700A2
:1029500093971400BE94B2478604BE94938711AF38
:1029600084A3A24785073EC475BF03C721AF3ACCF5
:1029700013972700BA973ED093970401C1833EC2B4
:102980003C860D671307077B3ECA3E833AD28147D8
:10299000025792563E973697182392463ACEB884FD
:1029A0009A9636D43AC83AC00147F246B3D6E640C2
:1029B000858A9DC6054681466392C408C2463AD8B8
:1029C0001ADAB385E6005247C205C1853305F70020
:1029D000420541853ED6EFF01FC0B25742575253D1
:1029E000824612460507B296C206C18236C0A1468B
:1029F000E31DD7FA3307C3001313070185071547F3
:102A000013530301E396E7F8A1B713150401968564
:102A1000054641859EC01ADE3EDC36DA3AD816D627
:102A2000EFF07FBB050486437253E257D2564257FC
:102A3000B25242044180E31A74FC850613F6F60F85
:102A4000E37096FA02461A8483538102B302D600D9
:102A5000C20293D20241C5B7EFD28FE471112EC0EA
:102A6000EF0090408245EFD0EFE4931715003E95BC
:102A700006054205418111016FD02FE3EFD24FE2ED
:102A8000371402401C403707FFF8414593E7170011
:102A90001CC05C40F98F5CC01C403707F7FE7D17F7
:102AA000F98F1CC01C403707FCFF7D17F98F1CC035
:102AB0005C4041777D17F98F5CC0B7079F001CC44D
:102AC0009D261C4C93E707021CCCB717014003A7B7
:102AD0000740938607401377F7F023A0E74003A74A
:102AE00007401367070823A0E74089479CCAB7F748
:102AF000FF1F03C5477D9307F00F6304F5007D8931
:102B00001D26B72702409843C176FD16719B98C3D6
:102B100098431367170098C3B7170240D843D8C328
:102B2000D843758FD8C3D843B7060001D8C398439C
:102B3000558F98C3984393166700E3DD06FED8438C
:102B4000B7160240719BD8C3D84313672700D8C378
:102B50002147DC42B18BE39EE7FE6FD00FD5EFD269
:102B60002FD4371702405C43370400209146B18BC5
:102B7000130444026385D700A1466382D704B737A4
:102B80006E01938707601CC0B7160240DC42084004
:102B9000918313F7F700B707002093874701BA978F
:102BA0008C23DC4293F5F50F93F707083357B500F4
:102BB00081E7EFD02FD22A8718C06FD00FCF5C43A8
:102BC000B777DC02938707C07DBF01A097E1FF1FA5
:102BD0009381C1C5138181FD1305000A97D5FF1F9D
:102BE0009385454217D6FF1F1306C64163FAC500F9
:102BF0008322050023A0550011059105E3EAC5FED7
:102C000017150000130505DB97D5FF1F9385853F3A
:102C100017D6FF1F1306864163FAC50083220500FD
:102C200023A0550011059105E3EAC5FE17D5FF1F46
:102C30001305C53F938581CF6377B5002320050039
:102C40001105E36DB5FEB7220000938202887390F0
:102C500002308D427390428097D2FFFF9382823A76
:102C600093E2320073905230EFF05FE197F2FFFF92
:102C70009382C23B73901234730020305841032377
:102C800005004C4537060140930706403E979346A2
:102C9000F3FFB1C583250640F58D2320B640D04310
:102CA000F18ED4C31443B3E6660014C318419047B1
:102CB0009346F7FF758E90C7D047F18ED4C7144561
:102CC00041466399C6009447D98E94C7D447558F1F
:102CD000D8C78280B6979443558F98C382801C438F
:102CE000F58F1CC38280B70701401387074083A775
:102CF0000740584B698F09C77D8D3335A00082800E
:102D000001458280B707014023AAA74082809445ED
:102D100093F7060193F2F60081C7DC41B3E2F200BB
:102D200083D3050093F7F30FA5C3032305006111B7
:102D300022C226C081471304800293048004054701
:102D40003316F70033F7C3006312E60293952700AA
:102D50003D473317B7001347F7FF33736700B39549
:102D6000B20033E36500639D860050C985072147A3
:102D7000E397E7FC1244232065008244210182800E
:102D8000E39696FE10C9DDB7828008456D8D333518
:102D9000A00082800CC982804CC982803707014024
:102DA000144786058D47B397B70093C7F7FFF58F94
:102DB0001CC71C47B315B500DD8D0CC7828023AA44
:102DC000A1CE828083A641CF854718216390F60269
:102DD0001C31639CD7023C219A0793E707F8B7E6BA
:102DE00000E093F7F70FBA962380F6408546935795
:102DF00057003397E600544189CE938707048A072A
:102E0000B7E600E0B69798C38280EDF33C219A07BD
:102E1000F9B793870706B7E600E08A07B69798C325
:102E20000F1000008280371702401C430E0593F7F5
:102E300077F05D8D08C3828099C5371702401C4F1B
:102E40005D8D08CF8280B7170240984F1345F5FF7C
:102E5000798D88CF828099C5371702405C4F5D8D90
:102E600048CF8280B7170240D84F1345F5FF798DC0
:102E7000C8CF82801E2137370140130707C0C20721
:102E8000C1836306E500370700406316E500BA21F9
:102E900093F7F7F8D98FFA2193F7F7CFC207C183D9
:102EA000D98F1EA1DE215EB59E211EB5B737014028
:102EB000938707C06314F5009C251EB985475EA95A
:102EC00082801E2189C593E717001EA18280C20758
:102ED000C183F99BC207C183CDBF5E2501C6DD8DCD
:102EE0004EA5828093C5F5FFFD8DDDBF4A318280FE
:102EF0001E294A25ED8F4205418189C76D8D3335E5
:102F0000A00082800145828093C5F5FFC205C18182
:102F10000EA9828093F5F51F4EA182800A216D8D46
:102F20003335A0008280EFD2AF977111AE84014497
:102F3000635FC402B7470140138707803A85930552
:102F4000000432C0EFF09FFDB747014013870780B0
:102F500002466DD5338784008305070013850780FB
:102F60000504C205C181EFF0FFFA0246D1B73285F0
:102F700011016FD08F93411106C62EC00DCD18419F
:102F8000AA8705C358417D5511CB8546631BD700E1
:102F900098472300070023A207000545B2404101DE
:102FA00082809847824614A39847050798C7D8435C
:102FB0007D17D8C3DDB705468A85EFF0DFF6F1BF90
:102FC000011122CC2EC206CE26CA2A84814793053F
:102FD0000002634506029245BE95838505008DE596
:102FE00063D8C70263D4E702198E1305000293F574
:102FF00026002AC089C501E7930500032EC0858AF3
:1030000081449DEAB28415A08507F1B71D8EF1BFFA
:103010000146E1BF824522853AC832C63EC4EFF080
:103020009FF5A24732464247FD14E34590FEB28425
:10303000635306008144058E63C7E702A687924664
:10304000338797403697830507009DEDB28463462A
:103050009004635306000146F2406244D2443305B3
:10306000F600056182801D8FBA87930500032285D3
:1030700032C83EC63AC4EFF01FF0B247224742467C
:10308000FD17E5F7BA945DBF228532C63EC4EFF066
:103090009FEEA247324685075DB78245228532C43E
:1030A0003EC2EFF05FEDFD14224692474DB73971F5
:1030B00006DE22DC26DA3EC232833A8691ED924663
:1030C0009307000301476C08FC86EFF07FEFF25096
:1030D0006254D25421618280AA843684AE8791CA18
:1030E000294701446317E30063D50500B307B040E7
:1030F00005448646A309010213073103938666FC43
:1031000036C49A853E8532CA3AC81AC63EC0EFC058
:103110003FFFA546824732434247524663D4A6004A
:10312000A2463695130505039306F7FFA30FA7FEE6
:103130009A853E8532CC3ACA1AC83EC636C0EFC020
:103140007FF9B24742435247624663FD670409CCA8
:1031500029CE9247898BB1CB9305D002268532C404
:10316000EFF07FE122467D169247918B85C7064797
:103170009307100632C49305000326856311F704F4
:10318000EFF07FDF930580072685EFF0DFDE224634
:10319000090479161647924682452685EFF05FE2CC
:1031A000229535B7AA870247A9BF82469307D00266
:1031B0000144A38FF6FE9307E7FF3EC075B7EFF01B
:1031C0009FDB93058005C9B7014582800145828058
:1031D000130181FD22D026CE06D22AC4AE823284CB
:1031E00002C681448385020091EDA24789C78145CB
:1031F0003E85EFF05FD8925002542685F2441301C9
:1032000081028280930750026389F500224516C827
:103210008504EFF05FD6C24205A0838712001387B2
:103220001200639DB7002245930550023AC8EFF0A3
:103230009FD442478504BA8285026DB7DDD79306D5
:10324000B0026389D70463C8F60093063002638630
:10325000D704814705A09306D002638AD70093065E
:103260000003E398D7FE13872200894721A0138724
:1032700022008547830607001306B0026383C60455
:103280006341D60213063002638BC602BA8201453F
:10329000A54681A0138722006DBF138722009147A6
:1032A000D1BF1306D0026389C60013060003E39F53
:1032B000C6FC93E7270031A005078547C1BF93E708
:1032C00047000507E1B713162500329506053A9524
:1032D000850203860200130706FD9375F70FE3F4DA
:1032E000B6FE1307E0029946631EE600850281469A
:1032F000A54503860200130606FD1377F60F63F556
:10330000E50236C6038702001306A006630DC70A4E
:103310006343E6021306C0046307C70A1306800668
:10332000630CC70881452DA813972600BA96860618
:10333000B29685027DBF130640076306C7081306D1
:10334000A0076302C7081306C0068145631AC700B9
:10335000038612008D456314E600850291458502BF
:1033600003860200930300061307100663C4C3001C
:10337000130710049303700663C4C3069303500637
:10338000635676189303700463C1C3049305500415
:10339000635EB61613073004E310E6EA18409303A1
:1033A000440016CA230CE1001EC8A30C010001470B
:1033B000BE862A862C0849A8038612008145E3119F
:1033C000E6FA890271BF8502B1BF93063006E307B2
:1033D000D6FC63CFC606930680056303D602A9BD5B
:1033E000930630076304D60463CBC6029306F00647
:1033F0006305D60E9306000793E74700E31ED6E267
:1034000091466392D50C930384000C40504016CA39
:103410003AC23EC01EC8AA870147C14681A893068A
:103420005007630BD6069306800745BF1840B74682
:103430000000930344009385869A11C3BA853247EE
:1034400016CA1EC8BE862A862245EFF07FB715A091
:1034500091466395D502930384000C40504016CAF0
:103460003AC23EC01EC8AA870547A9462245EFF0CA
:10347000BFD5C243AA941E84D2427DBBB2460C4043
:1034800016C836C23AC011042A8785462946224505
:10349000EFF0FFC1AA9441B39146639DD500930319
:1034A00084000C40504016CA3AC23EC01EC8AA87CB
:1034B000014765BFB2460C4016C836C23AC0110477
:1034C0002A878146E1B7B24616C80C40414636C24B
:1034D0003AC011042A8781465DBF9146639ED5009C
:1034E000930384000C40504016CA3AC23EC01EC826
:1034F000AA870147A1469DBFB2460C4016C836C2F6
:103500003AC011042A878146214651B70C40130660
:10351000840040403AC22A87224532C83EC02286F3
:10352000B687A94616CAEFF07FCAAA944244A9B743
:10353000130181FD32833ED22EC42AC6700885470E
:1035400048009A8506CC36CE3AD03EC232C0EFF063
:103550003FC8E24013018102828001476314E60004
:1035600001458280B307E5000507B386E5009C238B
:1035700083C6F6FFE384D7FE3385D7408280B3C786
:10358000A5008D8B3307C50081E78D4763E7C70230
:10359000AA87637EE50A942185078505A38FD7FE58
:1035A000E3EBE7FE8280942185078505A38FD7FE94
:1035B000E3EBE7FE02441101828093763500AA878F
:1035C00089CA942185078505A38FD7FE93F6370016
:1035D000C5BF9376C7FF138606FE63F5C706711154
:1035E00022C0C04903A3050083A38500C0CB804D42
:1035F00023A0670003A3450080CFC04D23A267002E
:1036000083A2C50003A3050193854502C0CF03A48F
:10361000C5FF23A4770023A6570023A8670093873C
:10362000470223AE87FEE3EEC7FAE3F3D7F89041F3
:103630009107910523AEC7FECDBF9041910791053B
:1036400023AEC7FEE3EBD7FEE3E7E7F48280828098
:1036500093F5F50F1C2191C76393B7008280050590
:10366000D5BF91C101458280AA87850703C7F7FFAF
:103670006DFF3385A7407D1582800000435545418D
:103680004141414345454549494941414592924F50
:103690004F4F5555594F554F9C4F9E9F41494F5540
:1036A000A5A5A6A7A8A9AAABACADAEAFB0B1B2B361
:1036B000B4414141B8B9BABBBCBDBEBFC0C1C2C3B1
:1036C000C4C54141C8C9CACBCCCDCECFD1D1454567
:1036D0004549494949D9DADBDCDD49DF4FE14F4F44
:1036E0004F4FE6E8E85555555959EEEFF0F1F2F332
:1036F000F4F5F6F7F8F9FAFBFCFDFEFF464154330A
:1037000032202020000000002A2B2C3A3B3C3D3E7A
:103710005B5D7C223F7F00006C210000882100005F
:10372000CE220000EC230000EC23000025752C00C5
:10373000257500004E6F20534420636172640000C1
:1037400030782530386C580030782530346C58008B
:103750003078256C5800000053697A653A2025645A
:10376000000000002F5369676E616C2D25642E7474
:1037700078740000256C583B0000000025643B7BFA
:10378000000000007D0D0A005361766564000000B2
:1037900043616E63656C00004C697374656E696E9D
:1037A000670000004952206C6F6767657200000077
:1037B000000000000000005F000000070007001488
:1037C0007F147F14242A7F2A122313086462364947
:1037D0005522500005030000001C22410000412238
:1037E0001C0014083E081408083E08080050300069
:1037F00000080808080800606000002010080402A3
:103800003E5149453E00427F4000426151494621B8
:1038100041454B311814127F1027454545393C4A24
:103820004949300171090503364949493606494974
:10383000291E0036360000005636000008142241CA
:103840000014141414140041221408020151090632
:10385000324979413E7E1111117E7F494949363EF8
:10386000414141227F4141221C7F494949417F0911
:103870000909013E4149497A7F0808087F00417FD4
:1038800041002040413F017F081422417F404040D9
:10389000407F020C027F7F0408107F3E4141413E81
:1038A0007F090909063E4151215E7F0919294646D3
:1038B0004949493101017F01013F4040403F1F20FC
:1038C00040201F3F4038403F6314081463070870CE
:1038D00008076151494543007F4141000204081037
:1038E000200041417F00040201020440404040406A
:1038F000000102040020545454787F48444438386E
:1039000044444420384444487F3854545418087E72
:103910000901020C5252523E7F0804047800447D93
:1039200040002040443D007F1028440000417F407B
:10393000007C041804787C08040478384444443833
:103940007C14141408081414187C7C080404084817
:1039500054545420043F4440203C4040207C1C20D0
:1039600040201C3C4030403C44281028440C50501F
:10397000503C4464544C44000836410000007F0031
:10398000000041360800100808100800AED580A8D5
:103990001FD300408D142000A1C8DA0281CFD9F1D5
:1039A000DB40A4A62EAF0000286E756C6C290000C9
:1039B00008000101000000001000010100000000EB
:1039C00001000000010203040506070801020304C8
:0839D00005060708006CDC028B
:00000001FF
